{
  "_format": "hh-sol-artifact-1",
  "contractName": "ComplianceRegistry",
  "sourceName": "contracts/ComplianceRegistry.sol",
  "abi": [
    {
      "inputs": [],
      "stateMutability": "nonpayable",
      "type": "constructor"
    },
    {
      "inputs": [
        {
          "internalType": "address",
          "name": "owner",
          "type": "address"
        }
      ],
      "name": "OwnableInvalidOwner",
      "type": "error"
    },
    {
      "inputs": [
        {
          "internalType": "address",
          "name": "account",
          "type": "address"
        }
      ],
      "name": "OwnableUnauthorizedAccount",
      "type": "error"
    },
    {
      "anonymous": false,
      "inputs": [
        {
          "indexed": true,
          "internalType": "address",
          "name": "wallet",
          "type": "address"
        },
        {
          "indexed": false,
          "internalType": "string",
          "name": "reason",
          "type": "string"
        }
      ],
      "name": "Blacklisted",
      "type": "event"
    },
    {
      "anonymous": false,
      "inputs": [
        {
          "indexed": true,
          "internalType": "address",
          "name": "previousOwner",
          "type": "address"
        },
        {
          "indexed": true,
          "internalType": "address",
          "name": "newOwner",
          "type": "address"
        }
      ],
      "name": "OwnershipTransferred",
      "type": "event"
    },
    {
      "anonymous": false,
      "inputs": [
        {
          "indexed": true,
          "internalType": "address",
          "name": "wallet",
          "type": "address"
        }
      ],
      "name": "RemovedFromBlacklist",
      "type": "event"
    },
    {
      "anonymous": false,
      "inputs": [
        {
          "indexed": true,
          "internalType": "address",
          "name": "wallet",
          "type": "address"
        },
        {
          "indexed": false,
          "internalType": "uint256",
          "name": "limit",
          "type": "uint256"
        }
      ],
      "name": "Whitelisted",
      "type": "event"
    },
    {
      "inputs": [
        {
          "internalType": "address",
          "name": "_wallet",
          "type": "address"
        },
        {
          "internalType": "string",
          "name": "_reason",
          "type": "string"
        }
      ],
      "name": "blacklist",
      "outputs": [],
      "stateMutability": "nonpayable",
      "type": "function"
    },
    {
      "inputs": [
        {
          "internalType": "address[]",
          "name": "_wallets",
          "type": "address[]"
        }
      ],
      "name": "bulkWhitelist",
      "outputs": [],
      "stateMutability": "nonpayable",
      "type": "function"
    },
    {
      "inputs": [
        {
          "internalType": "address",
          "name": "_sender",
          "type": "address"
        },
        {
          "internalType": "address",
          "name": "_receiver",
          "type": "address"
        },
        {
          "internalType": "uint256",
          "name": "_amount",
          "type": "uint256"
        }
      ],
      "name": "canTransfer",
      "outputs": [
        {
          "internalType": "bool",
          "name": "",
          "type": "bool"
        }
      ],
      "stateMutability": "view",
      "type": "function"
    },
    {
      "inputs": [],
      "name": "owner",
      "outputs": [
        {
          "internalType": "address",
          "name": "",
          "type": "address"
        }
      ],
      "stateMutability": "view",
      "type": "function"
    },
    {
      "inputs": [
        {
          "internalType": "address",
          "name": "",
          "type": "address"
        }
      ],
      "name": "registry",
      "outputs": [
        {
          "internalType": "bool",
          "name": "whitelisted",
          "type": "bool"
        },
        {
          "internalType": "bool",
          "name": "blacklisted",
          "type": "bool"
        },
        {
          "internalType": "uint256",
          "name": "limit",
          "type": "uint256"
        }
      ],
      "stateMutability": "view",
      "type": "function"
    },
    {
      "inputs": [
        {
          "internalType": "address",
          "name": "_wallet",
          "type": "address"
        }
      ],
      "name": "removeBlacklist",
      "outputs": [],
      "stateMutability": "nonpayable",
      "type": "function"
    },
    {
      "inputs": [],
      "name": "renounceOwnership",
      "outputs": [],
      "stateMutability": "nonpayable",
      "type": "function"
    },
    {
      "inputs": [
        {
          "internalType": "address",
          "name": "newOwner",
          "type": "address"
        }
      ],
      "name": "transferOwnership",
      "outputs": [],
      "stateMutability": "nonpayable",
      "type": "function"
    },
    {
      "inputs": [
        {
          "internalType": "address",
          "name": "_wallet",
          "type": "address"
        },
        {
          "internalType": "uint256",
          "name": "_limit",
          "type": "uint256"
        }
      ],
      "name": "whitelist",
      "outputs": [],
      "stateMutability": "nonpayable",
      "type": "function"
    }
  ],
  "bytecode": "0x608060405234801561001057600080fd5b5033600073ffffffffffffffffffffffffffffffffffffffff168173ffffffffffffffffffffffffffffffffffffffff16036100845760006040517f1e4fbdf700000000000000000000000000000000000000000000000000000000815260040161007b919061019e565b60405180910390fd5b6100938161009960201b60201c565b506101b9565b60008060009054906101000a900473ffffffffffffffffffffffffffffffffffffffff169050816000806101000a81548173ffffffffffffffffffffffffffffffffffffffff021916908373ffffffffffffffffffffffffffffffffffffffff1602179055508173ffffffffffffffffffffffffffffffffffffffff168173ffffffffffffffffffffffffffffffffffffffff167f8be0079c531659141344cd1fd0a4f28419497f9722a3daafe3b4186f6b6457e060405160405180910390a35050565b600073ffffffffffffffffffffffffffffffffffffffff82169050919050565b60006101888261015d565b9050919050565b6101988161017d565b82525050565b60006020820190506101b3600083018461018f565b92915050565b611063806101c86000396000f3fe608060405234801561001057600080fd5b50600436106100935760003560e01c8063ddf579ff11610066578063ddf579ff1461010e578063e46638e61461012a578063eb91e6511461015a578063f2fde38b14610176578063f73b55411461019257610093565b8063038defd714610098578063715018a6146100ca5780638da5cb5b146100d457806398fc55d8146100f2575b600080fd5b6100b260048036038101906100ad9190610b7a565b6101ae565b6040516100c193929190610bdb565b60405180910390f35b6100d26101f2565b005b6100dc610206565b6040516100e99190610c21565b60405180910390f35b61010c60048036038101906101079190610c68565b61022f565b005b61012860048036038101906101239190610d0d565b6103c6565b005b610144600480360381019061013f9190610d6d565b6104d8565b6040516101519190610dc0565b60405180910390f35b610174600480360381019061016f9190610b7a565b6106f3565b005b610190600480360381019061018b9190610b7a565b61079c565b005b6101ac60048036038101906101a79190610e31565b610822565b005b60016020528060005260406000206000915090508060000160009054906101000a900460ff16908060000160019054906101000a900460ff16908060010154905083565b6101fa6109bf565b6102046000610a46565b565b60008060009054906101000a900473ffffffffffffffffffffffffffffffffffffffff16905090565b6102376109bf565b600160008373ffffffffffffffffffffffffffffffffffffffff1673ffffffffffffffffffffffffffffffffffffffff16815260200190815260200160002060000160019054906101000a900460ff16156102c7576040517f08c379a00000000000000000000000000000000000000000000000000000000081526004016102be90610edb565b60405180910390fd5b604051806060016040528060011515815260200160001515815260200182815250600160008473ffffffffffffffffffffffffffffffffffffffff1673ffffffffffffffffffffffffffffffffffffffff16815260200190815260200160002060008201518160000160006101000a81548160ff02191690831515021790555060208201518160000160016101000a81548160ff021916908315150217905550604082015181600101559050508173ffffffffffffffffffffffffffffffffffffffff167f6ea640312e182de387819fbeb13be00db3171a445412852248559054871c4199826040516103ba9190610efb565b60405180910390a25050565b6103ce6109bf565b60018060008573ffffffffffffffffffffffffffffffffffffffff1673ffffffffffffffffffffffffffffffffffffffff16815260200190815260200160002060000160016101000a81548160ff0219169083151502179055506000600160008573ffffffffffffffffffffffffffffffffffffffff1673ffffffffffffffffffffffffffffffffffffffff16815260200190815260200160002060000160006101000a81548160ff0219169083151502179055508273ffffffffffffffffffffffffffffffffffffffff167f71ffd5b2f7b305f2f756c161455e2951077ed1951f9ecbee6252949bc1e13c5a83836040516104cb929190610f63565b60405180910390a2505050565b6000600160008573ffffffffffffffffffffffffffffffffffffffff1673ffffffffffffffffffffffffffffffffffffffff16815260200190815260200160002060000160009054906101000a900460ff1615806105825750600160008573ffffffffffffffffffffffffffffffffffffffff1673ffffffffffffffffffffffffffffffffffffffff16815260200190815260200160002060000160019054906101000a900460ff165b1561059057600090506106ec565b600160008473ffffffffffffffffffffffffffffffffffffffff1673ffffffffffffffffffffffffffffffffffffffff16815260200190815260200160002060000160009054906101000a900460ff1615806106385750600160008473ffffffffffffffffffffffffffffffffffffffff1673ffffffffffffffffffffffffffffffffffffffff16815260200190815260200160002060000160019054906101000a900460ff165b1561064657600090506106ec565b6000600160008673ffffffffffffffffffffffffffffffffffffffff1673ffffffffffffffffffffffffffffffffffffffff168152602001908152602001600020600101541180156106d95750600160008573ffffffffffffffffffffffffffffffffffffffff1673ffffffffffffffffffffffffffffffffffffffff1681526020019081526020016000206001015482115b156106e757600090506106ec565b600190505b9392505050565b6106fb6109bf565b6000600160008373ffffffffffffffffffffffffffffffffffffffff1673ffffffffffffffffffffffffffffffffffffffff16815260200190815260200160002060000160016101000a81548160ff0219169083151502179055508073ffffffffffffffffffffffffffffffffffffffff167f2b6bf71b58b3583add364b3d9060ebf8019650f65f5be35f5464b9cb3e4ba2d460405160405180910390a250565b6107a46109bf565b600073ffffffffffffffffffffffffffffffffffffffff168173ffffffffffffffffffffffffffffffffffffffff16036108165760006040517f1e4fbdf700000000000000000000000000000000000000000000000000000000815260040161080d9190610c21565b60405180910390fd5b61081f81610a46565b50565b61082a6109bf565b60005b828290508110156109ba576001600084848481811061084f5761084e610f87565b5b90506020020160208101906108649190610b7a565b73ffffffffffffffffffffffffffffffffffffffff1673ffffffffffffffffffffffffffffffffffffffff16815260200190815260200160002060000160019054906101000a900460ff166109a75760018060008585858181106108cb576108ca610f87565b5b90506020020160208101906108e09190610b7a565b73ffffffffffffffffffffffffffffffffffffffff1673ffffffffffffffffffffffffffffffffffffffff16815260200190815260200160002060000160006101000a81548160ff021916908315150217905550631dcd6500600160008585858181106109505761094f610f87565b5b90506020020160208101906109659190610b7a565b73ffffffffffffffffffffffffffffffffffffffff1673ffffffffffffffffffffffffffffffffffffffff168152602001908152602001600020600101819055505b80806109b290610fe5565b91505061082d565b505050565b6109c7610b0a565b73ffffffffffffffffffffffffffffffffffffffff166109e5610206565b73ffffffffffffffffffffffffffffffffffffffff1614610a4457610a08610b0a565b6040517f118cdaa7000000000000000000000000000000000000000000000000000000008152600401610a3b9190610c21565b60405180910390fd5b565b60008060009054906101000a900473ffffffffffffffffffffffffffffffffffffffff169050816000806101000a81548173ffffffffffffffffffffffffffffffffffffffff021916908373ffffffffffffffffffffffffffffffffffffffff1602179055508173ffffffffffffffffffffffffffffffffffffffff168173ffffffffffffffffffffffffffffffffffffffff167f8be0079c531659141344cd1fd0a4f28419497f9722a3daafe3b4186f6b6457e060405160405180910390a35050565b600033905090565b600080fd5b600080fd5b600073ffffffffffffffffffffffffffffffffffffffff82169050919050565b6000610b4782610b1c565b9050919050565b610b5781610b3c565b8114610b6257600080fd5b50565b600081359050610b7481610b4e565b92915050565b600060208284031215610b9057610b8f610b12565b5b6000610b9e84828501610b65565b91505092915050565b60008115159050919050565b610bbc81610ba7565b82525050565b6000819050919050565b610bd581610bc2565b82525050565b6000606082019050610bf06000830186610bb3565b610bfd6020830185610bb3565b610c0a6040830184610bcc565b949350505050565b610c1b81610b3c565b82525050565b6000602082019050610c366000830184610c12565b92915050565b610c4581610bc2565b8114610c5057600080fd5b50565b600081359050610c6281610c3c565b92915050565b60008060408385031215610c7f57610c7e610b12565b5b6000610c8d85828601610b65565b9250506020610c9e85828601610c53565b9150509250929050565b600080fd5b600080fd5b600080fd5b60008083601f840112610ccd57610ccc610ca8565b5b8235905067ffffffffffffffff811115610cea57610ce9610cad565b5b602083019150836001820283011115610d0657610d05610cb2565b5b9250929050565b600080600060408486031215610d2657610d25610b12565b5b6000610d3486828701610b65565b935050602084013567ffffffffffffffff811115610d5557610d54610b17565b5b610d6186828701610cb7565b92509250509250925092565b600080600060608486031215610d8657610d85610b12565b5b6000610d9486828701610b65565b9350506020610da586828701610b65565b9250506040610db686828701610c53565b9150509250925092565b6000602082019050610dd56000830184610bb3565b92915050565b60008083601f840112610df157610df0610ca8565b5b8235905067ffffffffffffffff811115610e0e57610e0d610cad565b5b602083019150836020820283011115610e2a57610e29610cb2565b5b9250929050565b60008060208385031215610e4857610e47610b12565b5b600083013567ffffffffffffffff811115610e6657610e65610b17565b5b610e7285828601610ddb565b92509250509250929050565b600082825260208201905092915050565b7f57616c6c657420697320626c61636b6c69737465640000000000000000000000600082015250565b6000610ec5601583610e7e565b9150610ed082610e8f565b602082019050919050565b60006020820190508181036000830152610ef481610eb8565b9050919050565b6000602082019050610f106000830184610bcc565b92915050565b82818337600083830152505050565b6000601f19601f8301169050919050565b6000610f428385610e7e565b9350610f4f838584610f16565b610f5883610f25565b840190509392505050565b60006020820190508181036000830152610f7e818486610f36565b90509392505050565b7f4e487b7100000000000000000000000000000000000000000000000000000000600052603260045260246000fd5b7f4e487b7100000000000000000000000000000000000000000000000000000000600052601160045260246000fd5b6000610ff082610bc2565b91507fffffffffffffffffffffffffffffffffffffffffffffffffffffffffffffffff820361102257611021610fb6565b5b60018201905091905056fea2646970667358221220f64b331c089d9bd0947cc7ea0c19076d4a48bb5f4c5c0e799477f7cb3302bd2d64736f6c63430008140033",
  "linkReferences": {},
  "deployedLinkReferences": {}
}