{
  "_format": "hh-sol-artifact-1",
  "contractName": "SettlementEngine",
  "sourceName": "contracts/SettlementEngine.sol",
  "abi": [
    {
      "inputs": [
        {
          "internalType": "address",
          "name": "_token",
          "type": "address"
        },
        {
          "internalType": "address",
          "name": "_compliance",
          "type": "address"
        },
        {
          "internalType": "address",
          "name": "_treasury",
          "type": "address"
        }
      ],
      "stateMutability": "nonpayable",
      "type": "constructor"
    },
    {
      "inputs": [
        {
          "internalType": "address",
          "name": "owner",
          "type": "address"
        }
      ],
      "name": "OwnableInvalidOwner",
      "type": "error"
    },
    {
      "inputs": [
        {
          "internalType": "address",
          "name": "account",
          "type": "address"
        }
      ],
      "name": "OwnableUnauthorizedAccount",
      "type": "error"
    },
    {
      "anonymous": false,
      "inputs": [
        {
          "indexed": true,
          "internalType": "address",
          "name": "previousOwner",
          "type": "address"
        },
        {
          "indexed": true,
          "internalType": "address",
          "name": "newOwner",
          "type": "address"
        }
      ],
      "name": "OwnershipTransferred",
      "type": "event"
    },
    {
      "anonymous": false,
      "inputs": [
        {
          "indexed": false,
          "internalType": "string",
          "name": "remittanceId",
          "type": "string"
        },
        {
          "indexed": true,
          "internalType": "address",
          "name": "sender",
          "type": "address"
        },
        {
          "indexed": true,
          "internalType": "address",
          "name": "receiver",
          "type": "address"
        },
        {
          "indexed": false,
          "internalType": "uint256",
          "name": "grossAmount",
          "type": "uint256"
        },
        {
          "indexed": false,
          "internalType": "uint256",
          "name": "fee",
          "type": "uint256"
        },
        {
          "indexed": false,
          "internalType": "uint256",
          "name": "netAmount",
          "type": "uint256"
        }
      ],
      "name": "RemittanceSettled",
      "type": "event"
    },
    {
      "inputs": [],
      "name": "compliance",
      "outputs": [
        {
          "internalType": "contract ComplianceRegistry",
          "name": "",
          "type": "address"
        }
      ],
      "stateMutability": "view",
      "type": "function"
    },
    {
      "inputs": [
        {
          "internalType": "string",
          "name": "remittanceId",
          "type": "string"
        },
        {
          "internalType": "address",
          "name": "sender",
          "type": "address"
        },
        {
          "internalType": "address",
          "name": "receiver",
          "type": "address"
        },
        {
          "internalType": "uint256",
          "name": "grossAmount",
          "type": "uint256"
        }
      ],
      "name": "executeRemittance",
      "outputs": [],
      "stateMutability": "nonpayable",
      "type": "function"
    },
    {
      "inputs": [],
      "name": "owner",
      "outputs": [
        {
          "internalType": "address",
          "name": "",
          "type": "address"
        }
      ],
      "stateMutability": "view",
      "type": "function"
    },
    {
      "inputs": [],
      "name": "renounceOwnership",
      "outputs": [],
      "stateMutability": "nonpayable",
      "type": "function"
    },
    {
      "inputs": [],
      "name": "token",
      "outputs": [
        {
          "internalType": "contract BlockPayUSD",
          "name": "",
          "type": "address"
        }
      ],
      "stateMutability": "view",
      "type": "function"
    },
    {
      "inputs": [
        {
          "internalType": "address",
          "name": "newOwner",
          "type": "address"
        }
      ],
      "name": "transferOwnership",
      "outputs": [],
      "stateMutability": "nonpayable",
      "type": "function"
    },
    {
      "inputs": [],
      "name": "treasury",
      "outputs": [
        {
          "internalType": "address",
          "name": "",
          "type": "address"
        }
      ],
      "stateMutability": "view",
      "type": "function"
    }
  ],
  "bytecode": "0x60806040523480156200001157600080fd5b5060405162000fd238038062000fd28339818101604052810190620000379190620002b9565b33600073ffffffffffffffffffffffffffffffffffffffff168173ffffffffffffffffffffffffffffffffffffffff1603620000ad5760006040517f1e4fbdf7000000000000000000000000000000000000000000000000000000008152600401620000a4919062000326565b60405180910390fd5b620000be816200018b60201b60201c565b5082600160006101000a81548173ffffffffffffffffffffffffffffffffffffffff021916908373ffffffffffffffffffffffffffffffffffffffff16021790555081600260006101000a81548173ffffffffffffffffffffffffffffffffffffffff021916908373ffffffffffffffffffffffffffffffffffffffff16021790555080600360006101000a81548173ffffffffffffffffffffffffffffffffffffffff021916908373ffffffffffffffffffffffffffffffffffffffff16021790555050505062000343565b60008060009054906101000a900473ffffffffffffffffffffffffffffffffffffffff169050816000806101000a81548173ffffffffffffffffffffffffffffffffffffffff021916908373ffffffffffffffffffffffffffffffffffffffff1602179055508173ffffffffffffffffffffffffffffffffffffffff168173ffffffffffffffffffffffffffffffffffffffff167f8be0079c531659141344cd1fd0a4f28419497f9722a3daafe3b4186f6b6457e060405160405180910390a35050565b600080fd5b600073ffffffffffffffffffffffffffffffffffffffff82169050919050565b6000620002818262000254565b9050919050565b620002938162000274565b81146200029f57600080fd5b50565b600081519050620002b38162000288565b92915050565b600080600060608486031215620002d557620002d46200024f565b5b6000620002e586828701620002a2565b9350506020620002f886828701620002a2565b92505060406200030b86828701620002a2565b9150509250925092565b620003208162000274565b82525050565b60006020820190506200033d600083018462000315565b92915050565b610c7f80620003536000396000f3fe608060405234801561001057600080fd5b506004361061007d5760003560e01c80638da5cb5b1161005b5780638da5cb5b146100c8578063b5120663146100e6578063f2fde38b14610102578063fc0c546a1461011e5761007d565b806361d027b3146100825780636290865d146100a0578063715018a6146100be575b600080fd5b61008a61013c565b60405161009791906106de565b60405180910390f35b6100a8610162565b6040516100b59190610758565b60405180910390f35b6100c6610188565b005b6100d061019c565b6040516100dd91906106de565b60405180910390f35b61010060048036038101906100fb9190610844565b6101c5565b005b61011c600480360381019061011791906108cc565b61049e565b005b610126610524565b604051610133919061091a565b60405180910390f35b600360009054906101000a900473ffffffffffffffffffffffffffffffffffffffff1681565b600260009054906101000a900473ffffffffffffffffffffffffffffffffffffffff1681565b61019061054a565b61019a60006105d1565b565b60008060009054906101000a900473ffffffffffffffffffffffffffffffffffffffff16905090565b6101cd61054a565b600260009054906101000a900473ffffffffffffffffffffffffffffffffffffffff1673ffffffffffffffffffffffffffffffffffffffff1663e46638e68484846040518463ffffffff1660e01b815260040161022c93929190610944565b602060405180830381865afa158015610249573d6000803e3d6000fd5b505050506040513d601f19601f8201168201806040525081019061026d91906109b3565b6102ac576040517f08c379a00000000000000000000000000000000000000000000000000000000081526004016102a390610a89565b60405180910390fd5b60006103e86005836102be9190610ad8565b6102c89190610b49565b9050600081836102d89190610b7a565b9050600160009054906101000a900473ffffffffffffffffffffffffffffffffffffffff1673ffffffffffffffffffffffffffffffffffffffff166333bebb778686846040518463ffffffff1660e01b815260040161033993929190610944565b600060405180830381600087803b15801561035357600080fd5b505af1158015610367573d6000803e3d6000fd5b50505050600082111561042857600160009054906101000a900473ffffffffffffffffffffffffffffffffffffffff1673ffffffffffffffffffffffffffffffffffffffff166333bebb7786600360009054906101000a900473ffffffffffffffffffffffffffffffffffffffff16856040518463ffffffff1660e01b81526004016103f593929190610944565b600060405180830381600087803b15801561040f57600080fd5b505af1158015610423573d6000803e3d6000fd5b505050505b8373ffffffffffffffffffffffffffffffffffffffff168573ffffffffffffffffffffffffffffffffffffffff167f776ce8dcb8c414bff301065a02ac85b311ce993580b499b87b62974911d374ef898987878760405161048d959493929190610bfb565b60405180910390a350505050505050565b6104a661054a565b600073ffffffffffffffffffffffffffffffffffffffff168173ffffffffffffffffffffffffffffffffffffffff16036105185760006040517f1e4fbdf700000000000000000000000000000000000000000000000000000000815260040161050f91906106de565b60405180910390fd5b610521816105d1565b50565b600160009054906101000a900473ffffffffffffffffffffffffffffffffffffffff1681565b610552610695565b73ffffffffffffffffffffffffffffffffffffffff1661057061019c565b73ffffffffffffffffffffffffffffffffffffffff16146105cf57610593610695565b6040517f118cdaa70000000000000000000000000000000000000000000000000000000081526004016105c691906106de565b60405180910390fd5b565b60008060009054906101000a900473ffffffffffffffffffffffffffffffffffffffff169050816000806101000a81548173ffffffffffffffffffffffffffffffffffffffff021916908373ffffffffffffffffffffffffffffffffffffffff1602179055508173ffffffffffffffffffffffffffffffffffffffff168173ffffffffffffffffffffffffffffffffffffffff167f8be0079c531659141344cd1fd0a4f28419497f9722a3daafe3b4186f6b6457e060405160405180910390a35050565b600033905090565b600073ffffffffffffffffffffffffffffffffffffffff82169050919050565b60006106c88261069d565b9050919050565b6106d8816106bd565b82525050565b60006020820190506106f360008301846106cf565b92915050565b6000819050919050565b600061071e6107196107148461069d565b6106f9565b61069d565b9050919050565b600061073082610703565b9050919050565b600061074282610725565b9050919050565b61075281610737565b82525050565b600060208201905061076d6000830184610749565b92915050565b600080fd5b600080fd5b600080fd5b600080fd5b600080fd5b60008083601f8401126107a2576107a161077d565b5b8235905067ffffffffffffffff8111156107bf576107be610782565b5b6020830191508360018202830111156107db576107da610787565b5b9250929050565b6107eb816106bd565b81146107f657600080fd5b50565b600081359050610808816107e2565b92915050565b6000819050919050565b6108218161080e565b811461082c57600080fd5b50565b60008135905061083e81610818565b92915050565b6000806000806000608086880312156108605761085f610773565b5b600086013567ffffffffffffffff81111561087e5761087d610778565b5b61088a8882890161078c565b9550955050602061089d888289016107f9565b93505060406108ae888289016107f9565b92505060606108bf8882890161082f565b9150509295509295909350565b6000602082840312156108e2576108e1610773565b5b60006108f0848285016107f9565b91505092915050565b600061090482610725565b9050919050565b610914816108f9565b82525050565b600060208201905061092f600083018461090b565b92915050565b61093e8161080e565b82525050565b600060608201905061095960008301866106cf565b61096660208301856106cf565b6109736040830184610935565b949350505050565b60008115159050919050565b6109908161097b565b811461099b57600080fd5b50565b6000815190506109ad81610987565b92915050565b6000602082840312156109c9576109c8610773565b5b60006109d78482850161099e565b91505092915050565b600082825260208201905092915050565b7f436f6d706c69616e636520626c6f636b3a2073656e6465722f7265636569766560008201527f72206e6f742077686974656c6973746564206f72206c696d697420657863656560208201527f6465640000000000000000000000000000000000000000000000000000000000604082015250565b6000610a736043836109e0565b9150610a7e826109f1565b606082019050919050565b60006020820190508181036000830152610aa281610a66565b9050919050565b7f4e487b7100000000000000000000000000000000000000000000000000000000600052601160045260246000fd5b6000610ae38261080e565b9150610aee8361080e565b9250828202610afc8161080e565b91508282048414831517610b1357610b12610aa9565b5b5092915050565b7f4e487b7100000000000000000000000000000000000000000000000000000000600052601260045260246000fd5b6000610b548261080e565b9150610b5f8361080e565b925082610b6f57610b6e610b1a565b5b828204905092915050565b6000610b858261080e565b9150610b908361080e565b9250828203905081811115610ba857610ba7610aa9565b5b92915050565b82818337600083830152505050565b6000601f19601f8301169050919050565b6000610bda83856109e0565b9350610be7838584610bae565b610bf083610bbd565b840190509392505050565b60006080820190508181036000830152610c16818789610bce565b9050610c256020830186610935565b610c326040830185610935565b610c3f6060830184610935565b969550505050505056fea2646970667358221220b3b4bb6cc6361e5f872c3a769f244b368d854102b622367718fd3a06cfb600ac64736f6c63430008140033",
  "linkReferences": {},
  "deployedLinkReferences": {}
}