{
  "_format": "hh-sol-artifact-1",
  "contractName": "BlockPayUSD",
  "sourceName": "contracts/Unified.sol",
  "abi": [
    {
      "inputs": [],
      "stateMutability": "nonpayable",
      "type": "constructor"
    },
    {
      "anonymous": false,
      "inputs": [
        {
          "indexed": true,
          "internalType": "address",
          "name": "previousOwner",
          "type": "address"
        },
        {
          "indexed": true,
          "internalType": "address",
          "name": "newOwner",
          "type": "address"
        }
      ],
      "name": "OwnershipTransferred",
      "type": "event"
    },
    {
      "anonymous": false,
      "inputs": [
        {
          "indexed": true,
          "internalType": "address",
          "name": "from",
          "type": "address"
        },
        {
          "indexed": true,
          "internalType": "address",
          "name": "to",
          "type": "address"
        },
        {
          "indexed": false,
          "internalType": "uint256",
          "name": "value",
          "type": "uint256"
        }
      ],
      "name": "Transfer",
      "type": "event"
    },
    {
      "inputs": [
        {
          "internalType": "address",
          "name": "account",
          "type": "address"
        }
      ],
      "name": "balanceOf",
      "outputs": [
        {
          "internalType": "uint256",
          "name": "",
          "type": "uint256"
        }
      ],
      "stateMutability": "view",
      "type": "function"
    },
    {
      "inputs": [
        {
          "internalType": "address",
          "name": "from",
          "type": "address"
        },
        {
          "internalType": "uint256",
          "name": "amount",
          "type": "uint256"
        }
      ],
      "name": "burn",
      "outputs": [],
      "stateMutability": "nonpayable",
      "type": "function"
    },
    {
      "inputs": [],
      "name": "decimals",
      "outputs": [
        {
          "internalType": "uint8",
          "name": "",
          "type": "uint8"
        }
      ],
      "stateMutability": "view",
      "type": "function"
    },
    {
      "inputs": [
        {
          "internalType": "address",
          "name": "from",
          "type": "address"
        },
        {
          "internalType": "address",
          "name": "to",
          "type": "address"
        },
        {
          "internalType": "uint256",
          "name": "amount",
          "type": "uint256"
        }
      ],
      "name": "forceTransfer",
      "outputs": [],
      "stateMutability": "nonpayable",
      "type": "function"
    },
    {
      "inputs": [
        {
          "internalType": "address",
          "name": "",
          "type": "address"
        }
      ],
      "name": "isOperator",
      "outputs": [
        {
          "internalType": "bool",
          "name": "",
          "type": "bool"
        }
      ],
      "stateMutability": "view",
      "type": "function"
    },
    {
      "inputs": [
        {
          "internalType": "address",
          "name": "to",
          "type": "address"
        },
        {
          "internalType": "uint256",
          "name": "amount",
          "type": "uint256"
        }
      ],
      "name": "mint",
      "outputs": [],
      "stateMutability": "nonpayable",
      "type": "function"
    },
    {
      "inputs": [],
      "name": "name",
      "outputs": [
        {
          "internalType": "string",
          "name": "",
          "type": "string"
        }
      ],
      "stateMutability": "view",
      "type": "function"
    },
    {
      "inputs": [],
      "name": "owner",
      "outputs": [
        {
          "internalType": "address",
          "name": "",
          "type": "address"
        }
      ],
      "stateMutability": "view",
      "type": "function"
    },
    {
      "inputs": [
        {
          "internalType": "address",
          "name": "op",
          "type": "address"
        },
        {
          "internalType": "bool",
          "name": "status",
          "type": "bool"
        }
      ],
      "name": "setOperator",
      "outputs": [],
      "stateMutability": "nonpayable",
      "type": "function"
    },
    {
      "inputs": [],
      "name": "symbol",
      "outputs": [
        {
          "internalType": "string",
          "name": "",
          "type": "string"
        }
      ],
      "stateMutability": "view",
      "type": "function"
    }
  ],
  "bytecode": "0x60806040526040518060400160405280600c81526020017f426c6f636b506179205553440000000000000000000000000000000000000000815250600490816200004a919062000430565b506040518060400160405280600581526020017f42505553440000000000000000000000000000000000000000000000000000008152506005908162000091919062000430565b5060068060006101000a81548160ff021916908360ff160217905550348015620000ba57600080fd5b5033806000806101000a81548173ffffffffffffffffffffffffffffffffffffffff021916908373ffffffffffffffffffffffffffffffffffffffff1602179055508073ffffffffffffffffffffffffffffffffffffffff16600073ffffffffffffffffffffffffffffffffffffffff167f8be0079c531659141344cd1fd0a4f28419497f9722a3daafe3b4186f6b6457e060405160405180910390a3506001600260003373ffffffffffffffffffffffffffffffffffffffff1673ffffffffffffffffffffffffffffffffffffffff16815260200190815260200160002060006101000a81548160ff02191690831515021790555062000517565b600081519050919050565b7f4e487b7100000000000000000000000000000000000000000000000000000000600052604160045260246000fd5b7f4e487b7100000000000000000000000000000000000000000000000000000000600052602260045260246000fd5b600060028204905060018216806200023857607f821691505b6020821081036200024e576200024d620001f0565b5b50919050565b60008190508160005260206000209050919050565b60006020601f8301049050919050565b600082821b905092915050565b600060088302620002b87fffffffffffffffffffffffffffffffffffffffffffffffffffffffffffffffff8262000279565b620002c4868362000279565b95508019841693508086168417925050509392505050565b6000819050919050565b6000819050919050565b6000620003116200030b6200030584620002dc565b620002e6565b620002dc565b9050919050565b6000819050919050565b6200032d83620002f0565b620003456200033c8262000318565b84845462000286565b825550505050565b600090565b6200035c6200034d565b6200036981848462000322565b505050565b5b8181101562000391576200038560008262000352565b6001810190506200036f565b5050565b601f821115620003e057620003aa8162000254565b620003b58462000269565b81016020851015620003c5578190505b620003dd620003d48562000269565b8301826200036e565b50505b505050565b600082821c905092915050565b60006200040560001984600802620003e5565b1980831691505092915050565b6000620004208383620003f2565b9150826002028217905092915050565b6200043b82620001b6565b67ffffffffffffffff811115620004575762000456620001c1565b5b6200046382546200021f565b6200047082828562000395565b600060209050601f831160018114620004a8576000841562000493578287015190505b6200049f858262000412565b8655506200050f565b601f198416620004b88662000254565b60005b82811015620004e257848901518255600182019150602085019450602081019050620004bb565b86831015620005025784890151620004fe601f891682620003f2565b8355505b6001600288020188555050505b505050505050565b61101080620005276000396000f3fe608060405234801561001057600080fd5b506004361061009e5760003560e01c80636d70f7ae116100665780636d70f7ae1461013357806370a08231146101635780638da5cb5b1461019357806395d89b41146101b15780639dc29fac146101cf5761009e565b806306fdde03146100a3578063313ce567146100c157806333bebb77146100df57806340c10f19146100fb578063558a729714610117575b600080fd5b6100ab6101eb565b6040516100b89190610a8b565b60405180910390f35b6100c9610279565b6040516100d69190610ac9565b60405180910390f35b6100f960048036038101906100f49190610b7d565b61028c565b005b61011560048036038101906101109190610bd0565b6104b0565b005b610131600480360381019061012c9190610c48565b610615565b005b61014d60048036038101906101489190610c88565b6106ec565b60405161015a9190610cc4565b60405180910390f35b61017d60048036038101906101789190610c88565b61070c565b60405161018a9190610cee565b60405180910390f35b61019b610755565b6040516101a89190610d18565b60405180910390f35b6101b961077e565b6040516101c69190610a8b565b60405180910390f35b6101e960048036038101906101e49190610bd0565b61080c565b005b600480546101f890610d62565b80601f016020809104026020016040519081016040528092919081815260200182805461022490610d62565b80156102715780601f1061024657610100808354040283529160200191610271565b820191906000526020600020905b81548152906001019060200180831161025457829003601f168201915b505050505081565b600660009054906101000a900460ff1681565b600260003373ffffffffffffffffffffffffffffffffffffffff1673ffffffffffffffffffffffffffffffffffffffff16815260200190815260200160002060009054906101000a900460ff16610318576040517f08c379a000000000000000000000000000000000000000000000000000000000815260040161030f90610ddf565b60405180910390fd5b80600160008573ffffffffffffffffffffffffffffffffffffffff1673ffffffffffffffffffffffffffffffffffffffff16815260200190815260200160002054101561039a576040517f08c379a000000000000000000000000000000000000000000000000000000000815260040161039190610e4b565b60405180910390fd5b80600160008573ffffffffffffffffffffffffffffffffffffffff1673ffffffffffffffffffffffffffffffffffffffff16815260200190815260200160002060008282546103e99190610e9a565b9250508190555080600160008473ffffffffffffffffffffffffffffffffffffffff1673ffffffffffffffffffffffffffffffffffffffff168152602001908152602001600020600082825461043f9190610ece565b925050819055508173ffffffffffffffffffffffffffffffffffffffff168373ffffffffffffffffffffffffffffffffffffffff167fddf252ad1be2c89b69c2b068fc378daa952ba7f163c4a11628f55a4df523b3ef836040516104a39190610cee565b60405180910390a3505050565b600260003373ffffffffffffffffffffffffffffffffffffffff1673ffffffffffffffffffffffffffffffffffffffff16815260200190815260200160002060009054906101000a900460ff1661053c576040517f08c379a000000000000000000000000000000000000000000000000000000000815260040161053390610ddf565b60405180910390fd5b806003600082825461054e9190610ece565b9250508190555080600160008473ffffffffffffffffffffffffffffffffffffffff1673ffffffffffffffffffffffffffffffffffffffff16815260200190815260200160002060008282546105a49190610ece565b925050819055508173ffffffffffffffffffffffffffffffffffffffff16600073ffffffffffffffffffffffffffffffffffffffff167fddf252ad1be2c89b69c2b068fc378daa952ba7f163c4a11628f55a4df523b3ef836040516106099190610cee565b60405180910390a35050565b61061d6109f3565b73ffffffffffffffffffffffffffffffffffffffff1661063b610755565b73ffffffffffffffffffffffffffffffffffffffff1614610691576040517f08c379a000000000000000000000000000000000000000000000000000000000815260040161068890610f4e565b60405180910390fd5b80600260008473ffffffffffffffffffffffffffffffffffffffff1673ffffffffffffffffffffffffffffffffffffffff16815260200190815260200160002060006101000a81548160ff0219169083151502179055505050565b60026020528060005260406000206000915054906101000a900460ff1681565b6000600160008373ffffffffffffffffffffffffffffffffffffffff1673ffffffffffffffffffffffffffffffffffffffff168152602001908152602001600020549050919050565b60008060009054906101000a900473ffffffffffffffffffffffffffffffffffffffff16905090565b6005805461078b90610d62565b80601f01602080910402602001604051908101604052809291908181526020018280546107b790610d62565b80156108045780601f106107d957610100808354040283529160200191610804565b820191906000526020600020905b8154815290600101906020018083116107e757829003601f168201915b505050505081565b600260003373ffffffffffffffffffffffffffffffffffffffff1673ffffffffffffffffffffffffffffffffffffffff16815260200190815260200160002060009054906101000a900460ff16610898576040517f08c379a000000000000000000000000000000000000000000000000000000000815260040161088f90610ddf565b60405180910390fd5b80600160008473ffffffffffffffffffffffffffffffffffffffff1673ffffffffffffffffffffffffffffffffffffffff16815260200190815260200160002054101561091a576040517f08c379a000000000000000000000000000000000000000000000000000000000815260040161091190610fba565b60405180910390fd5b80600160008473ffffffffffffffffffffffffffffffffffffffff1673ffffffffffffffffffffffffffffffffffffffff16815260200190815260200160002060008282546109699190610e9a565b9250508190555080600360008282546109829190610e9a565b92505081905550600073ffffffffffffffffffffffffffffffffffffffff168273ffffffffffffffffffffffffffffffffffffffff167fddf252ad1be2c89b69c2b068fc378daa952ba7f163c4a11628f55a4df523b3ef836040516109e79190610cee565b60405180910390a35050565b600033905090565b600081519050919050565b600082825260208201905092915050565b60005b83811015610a35578082015181840152602081019050610a1a565b60008484015250505050565b6000601f19601f8301169050919050565b6000610a5d826109fb565b610a678185610a06565b9350610a77818560208601610a17565b610a8081610a41565b840191505092915050565b60006020820190508181036000830152610aa58184610a52565b905092915050565b600060ff82169050919050565b610ac381610aad565b82525050565b6000602082019050610ade6000830184610aba565b92915050565b600080fd5b600073ffffffffffffffffffffffffffffffffffffffff82169050919050565b6000610b1482610ae9565b9050919050565b610b2481610b09565b8114610b2f57600080fd5b50565b600081359050610b4181610b1b565b92915050565b6000819050919050565b610b5a81610b47565b8114610b6557600080fd5b50565b600081359050610b7781610b51565b92915050565b600080600060608486031215610b9657610b95610ae4565b5b6000610ba486828701610b32565b9350506020610bb586828701610b32565b9250506040610bc686828701610b68565b9150509250925092565b60008060408385031215610be757610be6610ae4565b5b6000610bf585828601610b32565b9250506020610c0685828601610b68565b9150509250929050565b60008115159050919050565b610c2581610c10565b8114610c3057600080fd5b50565b600081359050610c4281610c1c565b92915050565b60008060408385031215610c5f57610c5e610ae4565b5b6000610c6d85828601610b32565b9250506020610c7e85828601610c33565b9150509250929050565b600060208284031215610c9e57610c9d610ae4565b5b6000610cac84828501610b32565b91505092915050565b610cbe81610c10565b82525050565b6000602082019050610cd96000830184610cb5565b92915050565b610ce881610b47565b82525050565b6000602082019050610d036000830184610cdf565b92915050565b610d1281610b09565b82525050565b6000602082019050610d2d6000830184610d09565b92915050565b7f4e487b7100000000000000000000000000000000000000000000000000000000600052602260045260246000fd5b60006002820490506001821680610d7a57607f821691505b602082108103610d8d57610d8c610d33565b5b50919050565b7f4e6f74206f700000000000000000000000000000000000000000000000000000600082015250565b6000610dc9600683610a06565b9150610dd482610d93565b602082019050919050565b60006020820190508181036000830152610df881610dbc565b9050919050565b7f5472616e73666572203e2062616c000000000000000000000000000000000000600082015250565b6000610e35600e83610a06565b9150610e4082610dff565b602082019050919050565b60006020820190508181036000830152610e6481610e28565b9050919050565b7f4e487b7100000000000000000000000000000000000000000000000000000000600052601160045260246000fd5b6000610ea582610b47565b9150610eb083610b47565b9250828203905081811115610ec857610ec7610e6b565b5b92915050565b6000610ed982610b47565b9150610ee483610b47565b9250828201905080821115610efc57610efb610e6b565b5b92915050565b7f4f776e61626c653a2063616c6c6572206973206e6f7420746865206f776e6572600082015250565b6000610f38602083610a06565b9150610f4382610f02565b602082019050919050565b60006020820190508181036000830152610f6781610f2b565b9050919050565b7f4275726e203e2062616c00000000000000000000000000000000000000000000600082015250565b6000610fa4600a83610a06565b9150610faf82610f6e565b602082019050919050565b60006020820190508181036000830152610fd381610f97565b905091905056fea2646970667358221220f83edaee8ee912dca08cca32720f027e82ecf4e5931376f00caffe277d9cca8c64736f6c63430008140033",
  "linkReferences": {},
  "deployedLinkReferences": {}
}