{
  "_format": "hh-sol-artifact-1",
  "contractName": "ComplianceRegistry",
  "sourceName": "contracts/Unified.sol",
  "abi": [
    {
      "inputs": [],
      "stateMutability": "nonpayable",
      "type": "constructor"
    },
    {
      "anonymous": false,
      "inputs": [
        {
          "indexed": true,
          "internalType": "address",
          "name": "previousOwner",
          "type": "address"
        },
        {
          "indexed": true,
          "internalType": "address",
          "name": "newOwner",
          "type": "address"
        }
      ],
      "name": "OwnershipTransferred",
      "type": "event"
    },
    {
      "inputs": [
        {
          "internalType": "address",
          "name": "_wallet",
          "type": "address"
        },
        {
          "internalType": "string",
          "name": "",
          "type": "string"
        }
      ],
      "name": "blacklist",
      "outputs": [],
      "stateMutability": "nonpayable",
      "type": "function"
    },
    {
      "inputs": [
        {
          "internalType": "address",
          "name": "_sender",
          "type": "address"
        },
        {
          "internalType": "address",
          "name": "_receiver",
          "type": "address"
        },
        {
          "internalType": "uint256",
          "name": "_amount",
          "type": "uint256"
        }
      ],
      "name": "canTransfer",
      "outputs": [
        {
          "internalType": "bool",
          "name": "",
          "type": "bool"
        }
      ],
      "stateMutability": "view",
      "type": "function"
    },
    {
      "inputs": [],
      "name": "owner",
      "outputs": [
        {
          "internalType": "address",
          "name": "",
          "type": "address"
        }
      ],
      "stateMutability": "view",
      "type": "function"
    },
    {
      "inputs": [
        {
          "internalType": "address",
          "name": "",
          "type": "address"
        }
      ],
      "name": "registry",
      "outputs": [
        {
          "internalType": "bool",
          "name": "whitelisted",
          "type": "bool"
        },
        {
          "internalType": "bool",
          "name": "blacklisted",
          "type": "bool"
        },
        {
          "internalType": "uint256",
          "name": "limit",
          "type": "uint256"
        }
      ],
      "stateMutability": "view",
      "type": "function"
    },
    {
      "inputs": [
        {
          "internalType": "address",
          "name": "_wallet",
          "type": "address"
        }
      ],
      "name": "removeBlacklist",
      "outputs": [],
      "stateMutability": "nonpayable",
      "type": "function"
    },
    {
      "inputs": [
        {
          "internalType": "address",
          "name": "_wallet",
          "type": "address"
        },
        {
          "internalType": "uint256",
          "name": "_limit",
          "type": "uint256"
        }
      ],
      "name": "whitelist",
      "outputs": [],
      "stateMutability": "nonpayable",
      "type": "function"
    }
  ],
  "bytecode": "0x608060405234801561001057600080fd5b5033806000806101000a81548173ffffffffffffffffffffffffffffffffffffffff021916908373ffffffffffffffffffffffffffffffffffffffff1602179055508073ffffffffffffffffffffffffffffffffffffffff16600073ffffffffffffffffffffffffffffffffffffffff167f8be0079c531659141344cd1fd0a4f28419497f9722a3daafe3b4186f6b6457e060405160405180910390a350610b80806100bd6000396000f3fe608060405234801561001057600080fd5b50600436106100625760003560e01c8063038defd7146100675780638da5cb5b1461009957806398fc55d8146100b7578063ddf579ff146100d3578063e46638e6146100ef578063eb91e6511461011f575b600080fd5b610081600480360381019061007c9190610800565b61013b565b60405161009093929190610861565b60405180910390f35b6100a161017f565b6040516100ae91906108a7565b60405180910390f35b6100d160048036038101906100cc91906108ee565b6101a8565b005b6100ed60048036038101906100e89190610993565b610365565b005b610109600480360381019061010491906109f3565b61049b565b6040516101169190610a46565b60405180910390f35b61013960048036038101906101349190610800565b6106b6565b005b60016020528060005260406000206000915090508060000160009054906101000a900460ff16908060000160019054906101000a900460ff16908060010154905083565b60008060009054906101000a900473ffffffffffffffffffffffffffffffffffffffff16905090565b6101b0610790565b73ffffffffffffffffffffffffffffffffffffffff166101ce61017f565b73ffffffffffffffffffffffffffffffffffffffff1614610224576040517f08c379a000000000000000000000000000000000000000000000000000000000815260040161021b90610abe565b60405180910390fd5b600160008373ffffffffffffffffffffffffffffffffffffffff1673ffffffffffffffffffffffffffffffffffffffff16815260200190815260200160002060000160019054906101000a900460ff16156102b4576040517f08c379a00000000000000000000000000000000000000000000000000000000081526004016102ab90610b2a565b60405180910390fd5b604051806060016040528060011515815260200160001515815260200182815250600160008473ffffffffffffffffffffffffffffffffffffffff1673ffffffffffffffffffffffffffffffffffffffff16815260200190815260200160002060008201518160000160006101000a81548160ff02191690831515021790555060208201518160000160016101000a81548160ff021916908315150217905550604082015181600101559050505050565b61036d610790565b73ffffffffffffffffffffffffffffffffffffffff1661038b61017f565b73ffffffffffffffffffffffffffffffffffffffff16146103e1576040517f08c379a00000000000000000000000000000000000000000000000000000000081526004016103d890610abe565b60405180910390fd5b60018060008573ffffffffffffffffffffffffffffffffffffffff1673ffffffffffffffffffffffffffffffffffffffff16815260200190815260200160002060000160016101000a81548160ff0219169083151502179055506000600160008573ffffffffffffffffffffffffffffffffffffffff1673ffffffffffffffffffffffffffffffffffffffff16815260200190815260200160002060000160006101000a81548160ff021916908315150217905550505050565b6000600160008573ffffffffffffffffffffffffffffffffffffffff1673ffffffffffffffffffffffffffffffffffffffff16815260200190815260200160002060000160009054906101000a900460ff1615806105455750600160008573ffffffffffffffffffffffffffffffffffffffff1673ffffffffffffffffffffffffffffffffffffffff16815260200190815260200160002060000160019054906101000a900460ff165b1561055357600090506106af565b600160008473ffffffffffffffffffffffffffffffffffffffff1673ffffffffffffffffffffffffffffffffffffffff16815260200190815260200160002060000160009054906101000a900460ff1615806105fb5750600160008473ffffffffffffffffffffffffffffffffffffffff1673ffffffffffffffffffffffffffffffffffffffff16815260200190815260200160002060000160019054906101000a900460ff165b1561060957600090506106af565b6000600160008673ffffffffffffffffffffffffffffffffffffffff1673ffffffffffffffffffffffffffffffffffffffff1681526020019081526020016000206001015411801561069c5750600160008573ffffffffffffffffffffffffffffffffffffffff1673ffffffffffffffffffffffffffffffffffffffff1681526020019081526020016000206001015482115b156106aa57600090506106af565b600190505b9392505050565b6106be610790565b73ffffffffffffffffffffffffffffffffffffffff166106dc61017f565b73ffffffffffffffffffffffffffffffffffffffff1614610732576040517f08c379a000000000000000000000000000000000000000000000000000000000815260040161072990610abe565b60405180910390fd5b6000600160008373ffffffffffffffffffffffffffffffffffffffff1673ffffffffffffffffffffffffffffffffffffffff16815260200190815260200160002060000160016101000a81548160ff02191690831515021790555050565b600033905090565b600080fd5b600080fd5b600073ffffffffffffffffffffffffffffffffffffffff82169050919050565b60006107cd826107a2565b9050919050565b6107dd816107c2565b81146107e857600080fd5b50565b6000813590506107fa816107d4565b92915050565b60006020828403121561081657610815610798565b5b6000610824848285016107eb565b91505092915050565b60008115159050919050565b6108428161082d565b82525050565b6000819050919050565b61085b81610848565b82525050565b60006060820190506108766000830186610839565b6108836020830185610839565b6108906040830184610852565b949350505050565b6108a1816107c2565b82525050565b60006020820190506108bc6000830184610898565b92915050565b6108cb81610848565b81146108d657600080fd5b50565b6000813590506108e8816108c2565b92915050565b6000806040838503121561090557610904610798565b5b6000610913858286016107eb565b9250506020610924858286016108d9565b9150509250929050565b600080fd5b600080fd5b600080fd5b60008083601f8401126109535761095261092e565b5b8235905067ffffffffffffffff8111156109705761096f610933565b5b60208301915083600182028301111561098c5761098b610938565b5b9250929050565b6000806000604084860312156109ac576109ab610798565b5b60006109ba868287016107eb565b935050602084013567ffffffffffffffff8111156109db576109da61079d565b5b6109e78682870161093d565b92509250509250925092565b600080600060608486031215610a0c57610a0b610798565b5b6000610a1a868287016107eb565b9350506020610a2b868287016107eb565b9250506040610a3c868287016108d9565b9150509250925092565b6000602082019050610a5b6000830184610839565b92915050565b600082825260208201905092915050565b7f4f776e61626c653a2063616c6c6572206973206e6f7420746865206f776e6572600082015250565b6000610aa8602083610a61565b9150610ab382610a72565b602082019050919050565b60006020820190508181036000830152610ad781610a9b565b9050919050565b7f426c61636b6c6973746564000000000000000000000000000000000000000000600082015250565b6000610b14600b83610a61565b9150610b1f82610ade565b602082019050919050565b60006020820190508181036000830152610b4381610b07565b905091905056fea26469706673582212201163613c6b5663fc44df98076b2ac6a2cccd613a3fc0790c05edbf3e76e67c9164736f6c63430008140033",
  "linkReferences": {},
  "deployedLinkReferences": {}
}