{
  "_format": "hh-sol-artifact-1",
  "contractName": "SettlementEngine",
  "sourceName": "contracts/Unified.sol",
  "abi": [
    {
      "inputs": [
        {
          "internalType": "address",
          "name": "_token",
          "type": "address"
        },
        {
          "internalType": "address",
          "name": "_compliance",
          "type": "address"
        },
        {
          "internalType": "address",
          "name": "_treasury",
          "type": "address"
        }
      ],
      "stateMutability": "nonpayable",
      "type": "constructor"
    },
    {
      "anonymous": false,
      "inputs": [
        {
          "indexed": true,
          "internalType": "address",
          "name": "previousOwner",
          "type": "address"
        },
        {
          "indexed": true,
          "internalType": "address",
          "name": "newOwner",
          "type": "address"
        }
      ],
      "name": "OwnershipTransferred",
      "type": "event"
    },
    {
      "anonymous": false,
      "inputs": [
        {
          "indexed": false,
          "internalType": "string",
          "name": "remittanceId",
          "type": "string"
        },
        {
          "indexed": true,
          "internalType": "address",
          "name": "sender",
          "type": "address"
        },
        {
          "indexed": true,
          "internalType": "address",
          "name": "receiver",
          "type": "address"
        },
        {
          "indexed": false,
          "internalType": "uint256",
          "name": "grossAmount",
          "type": "uint256"
        },
        {
          "indexed": false,
          "internalType": "uint256",
          "name": "fee",
          "type": "uint256"
        },
        {
          "indexed": false,
          "internalType": "uint256",
          "name": "netAmount",
          "type": "uint256"
        }
      ],
      "name": "RemittanceSettled",
      "type": "event"
    },
    {
      "inputs": [],
      "name": "compliance",
      "outputs": [
        {
          "internalType": "contract ComplianceRegistry",
          "name": "",
          "type": "address"
        }
      ],
      "stateMutability": "view",
      "type": "function"
    },
    {
      "inputs": [
        {
          "internalType": "string",
          "name": "remittanceId",
          "type": "string"
        },
        {
          "internalType": "address",
          "name": "sender",
          "type": "address"
        },
        {
          "internalType": "address",
          "name": "receiver",
          "type": "address"
        },
        {
          "internalType": "uint256",
          "name": "grossAmount",
          "type": "uint256"
        }
      ],
      "name": "executeRemittance",
      "outputs": [],
      "stateMutability": "nonpayable",
      "type": "function"
    },
    {
      "inputs": [],
      "name": "owner",
      "outputs": [
        {
          "internalType": "address",
          "name": "",
          "type": "address"
        }
      ],
      "stateMutability": "view",
      "type": "function"
    },
    {
      "inputs": [],
      "name": "token",
      "outputs": [
        {
          "internalType": "contract BlockPayUSD",
          "name": "",
          "type": "address"
        }
      ],
      "stateMutability": "view",
      "type": "function"
    },
    {
      "inputs": [],
      "name": "treasury",
      "outputs": [
        {
          "internalType": "address",
          "name": "",
          "type": "address"
        }
      ],
      "stateMutability": "view",
      "type": "function"
    }
  ],
  "bytecode": "0x608060405234801561001057600080fd5b50604051610d14380380610d14833981810160405281019061003291906101fd565b33806000806101000a81548173ffffffffffffffffffffffffffffffffffffffff021916908373ffffffffffffffffffffffffffffffffffffffff1602179055508073ffffffffffffffffffffffffffffffffffffffff16600073ffffffffffffffffffffffffffffffffffffffff167f8be0079c531659141344cd1fd0a4f28419497f9722a3daafe3b4186f6b6457e060405160405180910390a35082600160006101000a81548173ffffffffffffffffffffffffffffffffffffffff021916908373ffffffffffffffffffffffffffffffffffffffff16021790555081600260006101000a81548173ffffffffffffffffffffffffffffffffffffffff021916908373ffffffffffffffffffffffffffffffffffffffff16021790555080600360006101000a81548173ffffffffffffffffffffffffffffffffffffffff021916908373ffffffffffffffffffffffffffffffffffffffff160217905550505050610250565b600080fd5b600073ffffffffffffffffffffffffffffffffffffffff82169050919050565b60006101ca8261019f565b9050919050565b6101da816101bf565b81146101e557600080fd5b50565b6000815190506101f7816101d1565b92915050565b6000806000606084860312156102165761021561019a565b5b6000610224868287016101e8565b9350506020610235868287016101e8565b9250506040610246868287016101e8565b9150509250925092565b610ab58061025f6000396000f3fe608060405234801561001057600080fd5b50600436106100575760003560e01c806361d027b31461005c5780636290865d1461007a5780638da5cb5b14610098578063b5120663146100b6578063fc0c546a146100d2575b600080fd5b6100646100f0565b6040516100719190610521565b60405180910390f35b610082610116565b60405161008f919061059b565b60405180910390f35b6100a061013c565b6040516100ad9190610521565b60405180910390f35b6100d060048036038101906100cb9190610687565b610165565b005b6100da6104b2565b6040516100e79190610730565b60405180910390f35b600360009054906101000a900473ffffffffffffffffffffffffffffffffffffffff1681565b600260009054906101000a900473ffffffffffffffffffffffffffffffffffffffff1681565b60008060009054906101000a900473ffffffffffffffffffffffffffffffffffffffff16905090565b61016d6104d8565b73ffffffffffffffffffffffffffffffffffffffff1661018b61013c565b73ffffffffffffffffffffffffffffffffffffffff16146101e1576040517f08c379a00000000000000000000000000000000000000000000000000000000081526004016101d8906107a8565b60405180910390fd5b600260009054906101000a900473ffffffffffffffffffffffffffffffffffffffff1673ffffffffffffffffffffffffffffffffffffffff1663e46638e68484846040518463ffffffff1660e01b8152600401610240939291906107d7565b602060405180830381865afa15801561025d573d6000803e3d6000fd5b505050506040513d601f19601f820116820180604052508101906102819190610846565b6102c0576040517f08c379a00000000000000000000000000000000000000000000000000000000081526004016102b7906108bf565b60405180910390fd5b60006103e86005836102d2919061090e565b6102dc919061097f565b9050600081836102ec91906109b0565b9050600160009054906101000a900473ffffffffffffffffffffffffffffffffffffffff1673ffffffffffffffffffffffffffffffffffffffff166333bebb778686846040518463ffffffff1660e01b815260040161034d939291906107d7565b600060405180830381600087803b15801561036757600080fd5b505af115801561037b573d6000803e3d6000fd5b50505050600082111561043c57600160009054906101000a900473ffffffffffffffffffffffffffffffffffffffff1673ffffffffffffffffffffffffffffffffffffffff166333bebb7786600360009054906101000a900473ffffffffffffffffffffffffffffffffffffffff16856040518463ffffffff1660e01b8152600401610409939291906107d7565b600060405180830381600087803b15801561042357600080fd5b505af1158015610437573d6000803e3d6000fd5b505050505b8373ffffffffffffffffffffffffffffffffffffffff168573ffffffffffffffffffffffffffffffffffffffff167f776ce8dcb8c414bff301065a02ac85b311ce993580b499b87b62974911d374ef89898787876040516104a1959493929190610a31565b60405180910390a350505050505050565b600160009054906101000a900473ffffffffffffffffffffffffffffffffffffffff1681565b600033905090565b600073ffffffffffffffffffffffffffffffffffffffff82169050919050565b600061050b826104e0565b9050919050565b61051b81610500565b82525050565b60006020820190506105366000830184610512565b92915050565b6000819050919050565b600061056161055c610557846104e0565b61053c565b6104e0565b9050919050565b600061057382610546565b9050919050565b600061058582610568565b9050919050565b6105958161057a565b82525050565b60006020820190506105b0600083018461058c565b92915050565b600080fd5b600080fd5b600080fd5b600080fd5b600080fd5b60008083601f8401126105e5576105e46105c0565b5b8235905067ffffffffffffffff811115610602576106016105c5565b5b60208301915083600182028301111561061e5761061d6105ca565b5b9250929050565b61062e81610500565b811461063957600080fd5b50565b60008135905061064b81610625565b92915050565b6000819050919050565b61066481610651565b811461066f57600080fd5b50565b6000813590506106818161065b565b92915050565b6000806000806000608086880312156106a3576106a26105b6565b5b600086013567ffffffffffffffff8111156106c1576106c06105bb565b5b6106cd888289016105cf565b955095505060206106e08882890161063c565b93505060406106f18882890161063c565b925050606061070288828901610672565b9150509295509295909350565b600061071a82610568565b9050919050565b61072a8161070f565b82525050565b60006020820190506107456000830184610721565b92915050565b600082825260208201905092915050565b7f4f776e61626c653a2063616c6c6572206973206e6f7420746865206f776e6572600082015250565b600061079260208361074b565b915061079d8261075c565b602082019050919050565b600060208201905081810360008301526107c181610785565b9050919050565b6107d181610651565b82525050565b60006060820190506107ec6000830186610512565b6107f96020830185610512565b61080660408301846107c8565b949350505050565b60008115159050919050565b6108238161080e565b811461082e57600080fd5b50565b6000815190506108408161081a565b92915050565b60006020828403121561085c5761085b6105b6565b5b600061086a84828501610831565b91505092915050565b7f436f6d703a20426c6f636b656400000000000000000000000000000000000000600082015250565b60006108a9600d8361074b565b91506108b482610873565b602082019050919050565b600060208201905081810360008301526108d88161089c565b9050919050565b7f4e487b7100000000000000000000000000000000000000000000000000000000600052601160045260246000fd5b600061091982610651565b915061092483610651565b925082820261093281610651565b91508282048414831517610949576109486108df565b5b5092915050565b7f4e487b7100000000000000000000000000000000000000000000000000000000600052601260045260246000fd5b600061098a82610651565b915061099583610651565b9250826109a5576109a4610950565b5b828204905092915050565b60006109bb82610651565b91506109c683610651565b92508282039050818111156109de576109dd6108df565b5b92915050565b82818337600083830152505050565b6000601f19601f8301169050919050565b6000610a10838561074b565b9350610a1d8385846109e4565b610a26836109f3565b840190509392505050565b60006080820190508181036000830152610a4c818789610a04565b9050610a5b60208301866107c8565b610a6860408301856107c8565b610a7560608301846107c8565b969550505050505056fea2646970667358221220fbea4ee29e0af7828f153c7d8bb2c90cfe88db12d9ca138b7a06b5436cca1a7564736f6c63430008140033",
  "linkReferences": {},
  "deployedLinkReferences": {}
}